:02000004C0D06A
:10000000B0B590B0044662B600F0BEFA01AD284625
:1000100000F0CFFDA885000417D101A800F0E0FC96
:100020000B9000F09BFC0D2802D3FF2000F0BEFCDB
:1000300001200102002C17D02068FF31884202D035
:10004000616800F065FA00F0A5FC00F0BDFC01A9B4
:10005000884202D10B9800F0C3FC01A8808D0028D3
:100060000BD1002010B0B0BD0F900E910448784421
:100070000D900DA800F080FCF3E700F08AFAC0466E
:100080002410000004218177812149008183816847
:100090003531C1607047000070B50446007804280F
:1000A00008D12069772808D81A48784400F078FAEF
:1000B000002300E00123637070BDE56878212846C5
:1000C00000F056FD04262E66606901780906427824
:1000D00012045118827812028918C078081857350E
:1000E00000210D4A7A448B00D358834204D0012367
:1000F00000291946F7D0DEE76977002902D00848C1
:10010000784401E00548784400F04AFA012028705C
:100110003346D0E7840B0000D80F0000610B0000CD
:10012000720B0000B0B50C46054601690D487844D5
:1001300000F036FAE868017F0906427F1204511880
:10014000827F12028918C07F0D180748784429461B
:1001500000F026FA206E291861660448784400F001
:100160001FFAB0BD5E0B00005A0B0000630B0000CD
:10017000F0B581B005468468C36801698648784453
:10018000202200F00DFA042028757420215C00293B
:1001900006D09C48784400F003FA00202875F0E06F
:1001A00026465736274668372078002818D0032877
:1001B00029D0012800D0E4E031787848784400F074
:1001C000EFF9307802282FDC002800D1B6E00128B2
:1001D00000D1BAE0022800D0D0E07148784486E02F
:1001E0007F48784400F0DCF9317802294BDD03299F
:1001F00057D0042958D0052900D08FE07A48784498
:1002000000F0CEF9BDE06F48784400F0C9F93078CD
:1002100001283FDD022868D003286FD0042800D0D1
:10022000ACE06A48784495E0032800D190E00428C7
:1002300000D192E0052800D0A0E0B87A401EB87244
:10024000C1B25848784400F0ABF9B97A012900D915
:1002500097E048002018EA68D37F927F1202D218F4
:100260006E23C25292B25048784400F099F9B87A9D
:10027000002800D085E04D48784400F091F9002036
:10028000307003202FE001293BD0022946D1554888
:1002900078442CE0002848D001286FD14A4878449F
:1002A00058E0544878445AE0B87A401EB872C1B257
:1002B0005148784400F074F9B97A012961D84800AE
:1002C0002018EA68D37F927F1202D2186A23C252A2
:1002D00092B24A48784400F063F9B87A002850D1C5
:1002E00000203070012020704BE03B48784400F043
:1002F00057F928462146FFF715FF3FE03748784475
:1003000028E03A48784400F04BF9E8680021425C64
:10031000002A38D1491C2029F9D12FE038487844E7
:1003200000F03EF90020287528E02948784400F0C4
:1003300037F929692166274878441DE02048784428
:1003400000F02EF92869206618E01948784401E089
:100350001848784400F024F910E01748784400F079
:100360001FF9E868C17F827F120251183980C07F6F
:10037000B87289B21148784400F012F93078401C04
:10038000307001B0F0BD1A48784400F009F9F87AED
:1003900001210143F972F1E7540B0000780C0000D1
:1003A000980C00007A0C0000810C0000870C000003
:1003B000150B00003C0B00004B0B0000260A000050
:1003C0000C0B00001C0D0000CA0C0000990D000071
:1003D000070C0000120C0000980C0000A40C000098
:1003E000510B0000CF0A0000F90B00003F0A00008B
:1003F000CD090000DB0A0000FE0A00000D0B000022
:10040000FD0A00007D0B000070B504468568C068D9
:100410002E46553600280FD00C48784400F0C0F81E
:10042000E1683420085C3070493514310C222846CC
:1004300000F0D9FB012004E00548784400F0B0F852
:10044000002070700420607570BDC046BA0B0000BB
:10045000A70B0000B0B504468568C0682269124940
:10046000794400F0C0FB7420295C002905D01248B3
:10047000784400F095F8002014E0733528780121C5
:1004800001400A48784400F08BF82878C00702D071
:100490000849794401E0064979446069A26900F09D
:1004A000A2FB04202077B0BD910B00007C0B000064
:1004B0008E0B00008F0B0000BD0B0000B0B5044692
:1004C000406AA16A00F054FBE06A216B00F050FB27
:1004D00025462035042028752020205C002806D0E1
:1004E0000A48784400F05CF800202875B0BD606AC6
:1004F000A26A054D7D44294600F075FBE06A226B37
:10050000294600F070FBB0BD5B0B0000790B0000CA
:1005100080B50246FF20034604339A420CDC0230C9
:10052000824218D081204000824218D09A4222D1C3
:100530000846FFF7A7FD80BD41239B009A4212D0D9
:100540000630824213D083204000824213D10846F5
:10055000FFF7B4FF80BD0846FFF79EFD80BD08464B
:10056000FFF706FE80BD0846FFF74EFF80BD084638
:10057000FFF770FF80BD03487844114600F010F883
:1005800080BDC046040B000080B5002000F028FAB2
:1005900080BD044600F018FA214600F016FB00006A
:1005A00083B0F0B59CB021AC0EC4002800D19EE110
:1005B000044621A806902078002800D197E1002663
:1005C000002805D0252803D0A0194078761CF7E72D
:1005D000B1B2204600F09AF9A05D252801D0A419F7
:1005E000EAE7A019441C0025202004900A2003906B
:1005F00005952F462B4619462078641C00232D288C
:10060000F9D0472813DC2F281FDD0346303B0A2B87
:1006100000D3DAE0302302465A402A4300D0049B3C
:100620000A226A431518303D04930B46E3E7672816
:1006300004DD722820DD73283AD123E062283DDCF6
:10064000482800D08FE001271AE0252800D199E042
:100650002A2822D02E2800D0B7E020782A2800D0DF
:10066000B3E06178482904D0732902D0682900D00A
:10067000ABE0641C012315E0682800D077E0002778
:10068000102003900698021D0692CBB20268012B3F
:1006900025DD022B0B46AED194E02078732800D0E4
:1006A00093E002230699081D069008680590A2E7CA
:1006B000752800D170E078285BD086E0632800D1EF
:1006C00073E0642800D080E00698011D069106685A
:1006D0000B960A20002E00D585E0002186E0002B35
:1006E000059E05D10021505C491C0028FBD14E1EFF
:1006F0000398102800D071E0002E029700D15AE72D
:1007000010780F2303400009012F15D0002F26D1A8
:100710000CAD059600266E70784F7F44385C2870CB
:1007200004202900ABDF6E70059EF85C029F2870E4
:1007300004202900ABDF12E00CAD059600266E7098
:100740006F4F7F44385C287004202900ABDF6E7047
:10075000059EF85C029F287004202900ABDF521C24
:10076000761ECDD127E758282FD1012701E0702828
:100770002BD10698011D069106680B96002001906A
:10078000102034E0601E00780CAA00215170107017
:1007900004201100ABDF0EE70698011D06910668E4
:1007A0000B96002001900A2021E00698011D069179
:1007B00000680B900CAA00215170107004201100E9
:1007C000ABDFF8E61078002877D00CAA5220908092
:1007D00049480C9004201100ABDFECE6B1B21046A2
:1007E00000F094F873E076420B9601210191029794
:1007F000B042039001D901270FE06A1E0746154653
:10080000002103983A460B4600F084F94A1E9141B4
:10081000B04202D86A1E0029F0D00198002805963F
:1008200000D06D1E049A0026002809D0D0B23028CE
:1008300008D107A82D21017001203146064602E0AB
:10084000314600E00121A81E0D280CD807A8801908
:100850006D1ED2B20491294600F093F904996D1EE1
:10086000761C002DFBD1002903D007A82D2181552E
:10087000761C002F1CD00298002802D02248784411
:1008800001E0204878440490039D0598394600F023
:10089000B5F8294600F038F90498405C07A9885556
:1008A0003846294600F0AAF8761CBD420746ECD926
:1008B000B1B207A800F02AF87DE60598421C0CABFF
:1008C0002020188004201900ABDF521EF7D1B5425A
:1008D00000D870E6A81B00D16DE6721B0CAB20207F
:1008E000188004201900ABDF521CF7D363E61CB05C
:1008F000F0BC01BC03B000474552524F81090000D3
:1009000069090000170800002D080000F0B591B03B
:1009100000291AD00C460546A6B23F2E009600D3F9
:100920003F2601AF38462946324600F026F900201E
:10093000B85504203900ABDF009A964200DAAD19B1
:10094000A41B200401D09642E6DB11B0F0BD01DF0C
:10095000002900D170470846FFF71BFE80B584B020
:10096000002002900190034801A9FFF7F0FF04B0B6
:1009700080BDC0463801006080B584B0002102917E
:100980000190034801A9FFF7E2FF04B080BDC04613
:100990000D67006080B582B0002001900248694672
:1009A000FFF7D5FF02B080BD8D68006080B584B0D0
:1009B000002102910190034801A9FFF7C8FF04B08C
:1009C00080BDC046BE9A006080B582B00020019014
:1009D00002486946FFF7BBFF02B080BDB1870060E7
:1009E00080B584B0002102910190034801A9FFF76E
:1009F000AEFF04B080BDC046060B01600022430874
:100A00008B4274D303098B425FD3030A8B4244D3D6
:100A1000030B8B4228D3030C8B420DD3FF22090218
:100A200012BA030C8B4202D31212090265D0030BD7
:100A30008B4219D300E0090AC30B8B4201D3CB03CD
:100A4000C01A5241830B8B4201D38B03C01A52410F
:100A5000430B8B4201D34B03C01A5241030B8B4211
:100A600001D30B03C01A5241C30A8B4201D3CB02FC
:100A7000C01A5241830A8B4201D38B02C01A5241E1
:100A8000430A8B4201D34B02C01A5241030A8B42E4
:100A900001D30B02C01A5241CDD2C3098B4201D3FC
:100AA000CB01C01A524183098B4201D38B01C01A7A
:100AB000524143098B4201D34B01C01A52410309F1
:100AC0008B4201D30B01C01A5241C3088B4201D3A0
:100AD000CB00C01A524183088B4201D38B00C01A4D
:100AE000524143088B4201D34B00C01A5241411A74
:100AF00000D20146524110467047FFE701B5002081
:100B000000F006F802BDC0460029F7D076E770472E
:100B10007047C046F0B5CE46474680B507009946B7
:100B20003B0C9C4613041B0C1D000E006146000488
:100B3000140C000C45434B4360436143C0182C0C1C
:100B400020188C46834203D980235B029846C44414
:100B5000494679437243030C63442D042D0CC91894
:100B6000000440198918C0BCB946B046F0BDC04663
:100B700010B5002200F005F810BD10B500F008F81F
:100B800010BD0B0010B511001A0000F00AF810BDDE
:100B9000002310B59A4200D110BDCC5CC45401337F
:100BA000F8E703008218934200D1704719700133AF
:100BB000F9E7F0C041464A4653465C466D467646E4
:100BC0007EC02838F0C80020704710307CC890469E
:100BD0009946A246AB46B54608C82838F0C8081C56
:100BE00000D101201847F0B50500002A14D0501E8E
:100BF000012A1CD02C000A0016002700367801328A
:100C00000134130025003E70002E0DD0013800285D
:100C1000F2D100222A7000E00B001A000132501EAF
:100C2000007813000028F9D1581A0138F0BD0B00E4
:100C3000EFE7506C7567696E20706172616D657465
:100C4000657273207374727563747572652069734D
:100C500020626967676572207468616E20616C6CE0
:100C60006F7765642073697A650A00494E204352A4
:100C7000454154450A00494E2050524F4345535375
:100C80005F4F55545055545F4F52444552530A00DC
:100C90006D73672D3E706172616D657465724F662C
:100CA000667365743A2025640A0055344245206D08
:100CB00073672D3E706172616D657465723A2025AF
:100CC000640A00636F70696564206F66667365749B
:100CD0003A2025640A00706C7567696E2070726F27
:100CE0007669646520706172616D657465723A2021
:100CF0006F66667365742025640A42797465733A79
:100D0000201B5B303B33316D20252E2A48201B5B96
:100D1000306D200A0053656C6563746F7220496EF4
:100D2000646578206E6F7420737570706F7274656F
:100D3000643A2025640A0050415253494E472043EB
:100D400052454154450A004352454154455F5F5462
:100D50004F4B454E5F49440A004953204E4F5420A3
:100D6000300A004352454154455F5F4F4646534564
:100D7000545F4241544348494E5055544F524445A4
:100D8000520A004352454154455F5F4C454E5F4215
:100D900041544348494E5055544F524445520A001D
:100DA00063757272656E745F6C656E6774683A2005
:100DB00025640A004352454154455F5F4F46465300
:100DC00045545F41525241595F4241544348494E54
:100DD0005055544F524445522C20696E6465783A00
:100DE0002025640A006F6666736574735F6C766CA9
:100DF000305B25645D3A2025640A004E4F50204E3A
:100E00004F50204352454154455F5F42415443484F
:100E10005F494E5055545F4F52444552530A00505B
:100E20006172616D206E6F7420737570706F727473
:100E300065643A2025640A0050415253494E4720C8
:100E400042494F20737465703B2025640A0070612D
:100E50007273652042494F5F5F494E505554544F5D
:100E60004B454E0A0070617273652042494F5F5FC7
:100E7000414D4F554E540A007061727365204249CE
:100E80004F5F5F4F46465345545F4F524445525360
:100E90000A0070617273652042494F5F5F46524F8E
:100EA0004D5F524553455256450A00706172736555
:100EB0002042494F5F5F4C454E5F4F52444552536D
:100EC0000A0070617273652042494F5F5F4F46466A
:100ED0005345545F41525241595F4F52444552531A
:100EE0002C20696E6465783A2025640A006F666676
:100EF000736574735F6C766C315B25645D3A202595
:100F0000640A0070617273652042494F5F5F4F460B
:100F1000465345545F41525241595F4F52444552E6
:100F200053204C4153540A0050415253494E4720DC
:100F30004F524445520A007061727365204F52440B
:100F400045525F5F4F50455241544F520A004E4543
:100F5000572063757272656E745F7475706C655F2F
:100F60006F66667365743A2025640A007061727357
:100F700065204F524445525F5F544F4B454E5F4191
:100F80004444524553530A007061727365204F52B6
:100F90004445525F5F4F46465345545F43414C4C76
:100FA000444154410A007061727365204F524445B8
:100FB000525F5F4C454E5F43414C4C444154410AA3
:100FC000007061727365204F524445525F5F434128
:100FD0004C4C444154410A0050454E5A4F206974CC
:100FE000656D310A0050454E5A4F206E6F2069746E
:100FF000656D310A004E65737465642046696E61E3
:101000006E636500636F6E746578742D3E626F6FFA
:101010006C65616E7320262049535F434F50593AE7
:101020002025640A00436F7079004372656174651E
:101030000053656C6563746F7220696E6465783AFD
:10104000202564206E6F7420737570706F727465E4
:10105000640A00706C616365686F6C64657200524D
:101060006563656976656420616E20696E76616C82
:1010700069642073637265656E496E6465780A0001
:10108000556E68616E646C6564206D65737361672D
:10109000652025640A00457468657265756D0030C9
:1010A00031323334353637383961626364656630DE
:1010B00031323334353637383941424344454600BE
:1010C0004B5378A3947022510000000000000000F0
:1010D0000000000000000000000000000000000010
:1010E0000000000000000000000000000000000000
:1010F00000000000000000000000000000000000F0
:04000005C0D0000166
:00000001FF
