:02000004C0D06A
:10000000B0B590B0044662B600F036FB01AD2846AC
:1000100000F047FEA885000417D101A800F058FDA4
:100020000B9000F013FD0D2802D3FF2000F036FDE9
:1000300001200102002C17D02068FF31884202D035
:10004000616800F0DDFA00F01DFD00F035FD01A94A
:10005000884202D10B9800F03BFD01A8808D00285A
:100060000BD1002010B0B0BD0F900E910448784421
:100070000D900DA800F0F8FCF3E700F002FBC0467D
:100080003612000004218177812149008183816833
:100090003531C16070470000F0B581B0044630488A
:1000A000784400F0F5FA20780127042829D1206946
:1000B000772805D82B48784400F0EAFA002621E09A
:1000C000E5687821284600F0CBFD04262E6660699D
:1000D00001780906427812045118827812028918B0
:1000E000C0780818573500211F4A7A4413688342A4
:1000F0000BD0121D491C0629F8D11C48784400F089
:10010000C7FA3E46667001B0F0BD6977C8B20228F2
:1001100008DC00280FD0012810D002281BD1154878
:10012000784413E003280CD004280DD0052812D100
:10013000114878440AE00E48784407E012487844B1
:1001400004E00E48784401E00D48784400F0A0FA3D
:1001500001202870D6E70B48784400F099FAADE703
:100160007E0C0000810C0000E6110000740C000001
:100170004D0C0000890C0000B00C00007F0C00004A
:10018000850C00009C0C0000520C0000B0B50C4621
:10019000054601690D48784400F07AFAE868017F65
:1001A0000906427F12045118827F12028918C07F0B
:1001B0000D1807487844294600F06AFA206E29187D
:1001C00061660448784400F063FAB0BD790C000021
:1001D000750C00007E0C000070B504468568C3688D
:1001E00001690F487844202200F052FA042626754F
:1001F0007420295C881E022808D3012907D0002911
:1002000009D00948784400F043FA267570BD0548C6
:10021000784400F03DFA2046294600F007F870BD0A
:10022000710C0000840C0000B20C0000F0B581B02D
:100230000C46054608780E4657360F4668370028A4
:1002400018D0032829D0012800D0E4E0317877487D
:10025000784400F01DFA307802282FDC002800D105
:10026000B6E0012800D1BAE0022800D0D0E0704802
:10027000784486E07E48784400F00AFA3178022912
:100280004BDD032957D0042958D0052900D08FE031
:100290007948784400F0FCF9BDE06E48784400F0FD
:1002A000F7F9307801283FDD022868D003286FD0A5
:1002B000042800D0ACE06948784495E0032800D1D8
:1002C00090E0042800D192E0052800D0A0E0B87AA0
:1002D000401EB872C1B25748784400F0D9F9B97AD3
:1002E000012900D997E048002018EA68D37F927F5F
:1002F0001202D2186E23C25292B24F48784400F0D4
:10030000C7F9B87A002800D085E04C48784400F05E
:10031000BFF90020307003202FE001293BD00229D3
:1003200046D1544878442CE0002848D001286FD1A9
:100330004948784458E0534878445AE0B87A401E17
:10034000B872C1B25048784400F0A2F9B97A0129D4
:1003500061D848002018EA68D37F927F1202D21831
:100360006A23C25292B24948784400F091F9B87AAF
:10037000002850D100203070012020704BE03A4816
:10038000784400F085F928462146FFF7FFFE3FE05C
:100390003648784428E03948784400F079F9E8682C
:1003A0000021425C002A38D1491C2029F9D12FE0D4
:1003B0003748784400F06CF90020287528E0284878
:1003C000784400F065F929692166264878441DE0E3
:1003D0001F48784400F05CF92869206618E0184846
:1003E000784401E01748784400F052F910E01648CC
:1003F000784400F04DF9E868C17F827F12025118FD
:100400003980C07FB87289B21048784400F040F952
:100410003078401C307001B0F0BD1948784400F0CD
:1004200037F9F87A01210143F972F1E7890D0000EB
:10043000A90D00008B0D0000920D0000980D00002A
:10044000260C00004D0C00005C0C0000370B000077
:100450001D0C00002D0E0000DB0D0000AA0E000098
:10046000180D0000230D0000A90D0000B50D0000BF
:10047000620C0000E00B00000A0D0000500B0000B1
:10048000DE0A0000EC0B00000F0C00001E0C000048
:100490000E0C000070B504468568C0682E465536BF
:1004A00000280FD00C48784400F0F2F8E1683420BE
:1004B000085C3070493514310C22284600F00BFCE2
:1004C000012004E00548784400F0E2F80020707054
:1004D0000420607570BDC046D30C0000CF0C000036
:1004E000B0B504468568C06822692649794400F0A1
:1004F000F2FB7420295C02290ADC002913D00129AF
:100500001FD002292ED16069A2691F49794426E0D3
:1005100003291BD004291ED0052923D16069A269B3
:100520001A4979441BE073352878012101401848A5
:10053000784400F0ADF82878C00719D016497944FE
:1005400018E06069A2691549794408E06069A26908
:100550001349794403E06069A2691249794400F0C3
:10056000BAFBB0BD1048784400F092F8002006E0D5
:10057000084979446069A26900F0ADFB0420207746
:10058000B0BDC046C80C0000F90C0000180D0000FA
:10059000930C0000770C0000A60C0000A80C0000D3
:1005A000C90C0000CE0C0000D90C0000B0B5044608
:1005B000406AA16A00F054FBE06A216B00F050FB36
:1005C00025462035042028752020205C002806D0F0
:1005D0000A48784400F05CF800202875B0BD606AD5
:1005E000A26A054D7D44294600F075FBE06A226B46
:1005F000294600F070FBB0BD7D0C00009B0C000094
:1006000080B50246FF20034604339A420CDC0230D8
:10061000824218D081204000824218D09A4222D1D2
:100620000846FFF72FFD80BD41239B009A4212D060
:100630000630824213D083204000824213D1084604
:10064000FFF7B4FF80BD0846FFF726FD80BD0846D2
:10065000FFF7C2FD80BD0846FFF71CFF80BD0846BE
:10066000FFF73EFF80BD03487844114600F010F8C4
:1006700080BDC046260C000080B5002000F028FA9E
:1006800080BD044600F018FA214600F016FB000079
:1006900083B0F0B59CB021AC0EC4002800D19EE11F
:1006A000044621A806902078002800D197E1002672
:1006B000002805D0252803D0A0194078761CF7E73C
:1006C000B1B2204600F09AF9A05D252801D0A41906
:1006D000EAE7A019441C0025202004900A2003907A
:1006E00005952F462B4619462078641C00232D289B
:1006F000F9D0472813DC2F281FDD0346303B0A2B97
:1007000000D3DAE0302302465A402A4300D0049B4B
:100710000A226A431518303D04930B46E3E7672825
:1007200004DD722820DD73283AD123E062283DDC05
:10073000482800D08FE001271AE0252800D199E051
:100740002A2822D02E2800D0B7E020782A2800D0EE
:10075000B3E06178482904D0732902D0682900D019
:10076000ABE0641C012315E0682800D077E0002787
:10077000102003900698021D0692CBB20268012B4E
:1007800025DD022B0B46AED194E02078732800D0F3
:1007900093E002230699081D069008680590A2E7D9
:1007A000752800D170E078285BD086E0632800D1FE
:1007B00073E0642800D080E00698011D0691066869
:1007C0000B960A20002E00D585E0002186E0002B44
:1007D000059E05D10021505C491C0028FBD14E1E0E
:1007E0000398102800D071E0002E029700D15AE73C
:1007F00010780F2303400009012F15D0002F26D1B8
:100800000CAD059600266E70784F7F44385C2870DA
:1008100004202900ABDF6E70059EF85C029F2870F3
:1008200004202900ABDF12E00CAD059600266E70A7
:100830006F4F7F44385C287004202900ABDF6E7056
:10084000059EF85C029F287004202900ABDF521C33
:10085000761ECDD127E758282FD1012701E0702837
:100860002BD10698011D069106680B960020019079
:10087000102034E0601E00780CAA00215170107026
:1008800004201100ABDF0EE70698011D06910668F3
:100890000B96002001900A2021E00698011D069188
:1008A00000680B900CAA00215170107004201100F8
:1008B000ABDFF8E61078002877D00CAA52209080A1
:1008C00049480C9004201100ABDFECE6B1B21046B1
:1008D00000F094F873E076420B96012101910297A3
:1008E000B042039001D901270FE06A1E0746154662
:1008F000002103983A460B4600F084F94A1E9141C4
:10090000B04202D86A1E0029F0D00198002805964E
:1009100000D06D1E049A0026002809D0D0B23028DD
:1009200008D107A82D21017001203146064602E0BA
:10093000314600E00121A81E0D280CD807A8801917
:100940006D1ED2B20491294600F093F904996D1EF0
:10095000761C002DFBD1002903D007A82D2181553D
:10096000761C002F1CD00298002802D02248784420
:1009700001E0204878440490039D0598394600F032
:10098000B5F8294600F038F90498405C07A9885565
:100990003846294600F0AAF8761CBD420746ECD935
:1009A000B1B207A800F02AF87DE60598421C0CAB0E
:1009B0002020188004201900ABDF521EF7D1B54269
:1009C00000D870E6A81B00D16DE6721B0CAB20208E
:1009D000188004201900ABDF521CF7D363E61CB06B
:1009E000F0BC01BC03B000474552524FA30A0000BF
:1009F0008B0A0000390900004F090000F0B591B0E2
:100A000000291AD00C460546A6B23F2E009600D308
:100A10003F2601AF38462946324600F026F900202D
:100A2000B85504203900ABDF009A964200DAAD19C0
:100A3000A41B200401D09642E6DB11B0F0BD01DF1B
:100A4000002900D170470846FFF71BFE80B584B02F
:100A5000002002900190034801A9FFF7F0FF04B0C5
:100A600080BDC0463801006080B584B0002102918D
:100A70000190034801A9FFF7E2FF04B080BDC04622
:100A80000D67006080B582B0002001900248694681
:100A9000FFF7D5FF02B080BD8D68006080B584B0DF
:100AA000002102910190034801A9FFF7C8FF04B09B
:100AB00080BDC046BE9A006080B582B00020019023
:100AC00002486946FFF7BBFF02B080BDB1870060F6
:100AD00080B584B0002102910190034801A9FFF77D
:100AE000AEFF04B080BDC046060B01600022430883
:100AF0008B4274D303098B425FD3030A8B4244D3E6
:100B0000030B8B4228D3030C8B420DD3FF22090227
:100B100012BA030C8B4202D31212090265D0030BE6
:100B20008B4219D300E0090AC30B8B4201D3CB03DC
:100B3000C01A5241830B8B4201D38B03C01A52411E
:100B4000430B8B4201D34B03C01A5241030B8B4220
:100B500001D30B03C01A5241C30A8B4201D3CB020B
:100B6000C01A5241830A8B4201D38B02C01A5241F0
:100B7000430A8B4201D34B02C01A5241030A8B42F3
:100B800001D30B02C01A5241CDD2C3098B4201D30B
:100B9000CB01C01A524183098B4201D38B01C01A89
:100BA000524143098B4201D34B01C01A5241030900
:100BB0008B4201D30B01C01A5241C3088B4201D3AF
:100BC000CB00C01A524183088B4201D38B00C01A5C
:100BD000524143088B4201D34B00C01A5241411A83
:100BE00000D20146524110467047FFE701B5002090
:100BF00000F006F802BDC0460029F7D076E770473E
:100C00007047C046F0B5CE46474680B507009946C6
:100C10003B0C9C4613041B0C1D000E006146000497
:100C2000140C000C45434B4360436143C0182C0C2B
:100C300020188C46834203D980235B029846C44423
:100C4000494679437243030C63442D042D0CC918A3
:100C5000000440198918C0BCB946B046F0BDC04672
:100C600010B5002200F005F810BD10B500F008F82E
:100C700010BD0B0010B511001A0000F00AF810BDED
:100C8000002310B59A4200D110BDCC5CC45401338E
:100C9000F8E703008218934200D1704719700133BE
:100CA000F9E7F0C041464A4653465C466D467646F3
:100CB0007EC02838F0C80020704710307CC89046AD
:100CC0009946A246AB46B54608C82838F0C8081C65
:100CD00000D101201847F0B50500002A14D0501E9D
:100CE000012A1CD02C000A00160027003678013299
:100CF0000134130025003E70002E0DD0013800286D
:100D0000F2D100222A7000E00B001A000132501EBE
:100D1000007813000028F9D1581A0138F0BD0B00F3
:100D2000EFE7494E2068616E646C655F696E6974B7
:100D30005F636F6E74726163740A00506C756769EB
:100D40006E20706172616D65746572732073747268
:100D5000756374757265206973206269676765726F
:100D6000207468616E20616C6C6F776564207369B4
:100D70007A650A0063616E27742066696E64207369
:100D8000656C6563746F720A00494E204352454199
:100D900054450A00494E2050524F434553535F4932
:100DA0004E5055545F4F52444552530A00494E200D
:100DB00050524F434553535F4F55545055545F4F16
:100DC00052444552530A00494E2044455354524F11
:100DD000590A00494E2052454C4541534520544F35
:100DE0004B454E530A00494E205452414E534645FE
:100DF000522046524F4D0A004D697373696E672049
:100E000073656C6563746F72496E6465783A20250A
:100E1000640A006D73672D3E706172616D65746563
:100E2000724F66667365743A2025640A0055344231
:100E300045206D73672D3E706172616D65746572DA
:100E40003A2025640A00636F70696564206F6666E6
:100E50007365743A2025640A00706C7567696E20AA
:100E600070726F7669646520706172616D6574651A
:100E7000723A206F66667365742025640A4279743D
:100E800065733A201B5B303B33316D20252E2A4899
:100E9000201B5B306D200A0068616E646C655F70BA
:100EA000726F766964655F706172616D6574657299
:100EB00020494E205042494F0A0053656C656374C7
:100EC0006F7220496E646578206E6F742073757040
:100ED000706F727465643A2025640A005041525361
:100EE000494E47204352454154450A00435245412B
:100EF00054455F5F544F4B454E5F49440A00495388
:100F0000204E4F5420300A004352454154455F5F04
:100F10004F46465345545F4241544348494E50550D
:100F2000544F524445520A004352454154455F5F75
:100F30004C454E5F4241544348494E5055544F52E0
:100F40004445520A0063757272656E745F6C656E1B
:100F50006774683A2025640A004352454154455F4E
:100F60005F4F46465345545F41525241595F42419B
:100F7000544348494E5055544F524445522C2069D1
:100F80006E6465783A2025640A006F66667365743E
:100F9000735F6C766C305B25645D3A2025640A00D3
:100FA0004E4F50204E4F50204352454154455F5FB5
:100FB00042415443485F494E5055545F4F52444557
:100FC00052530A00506172616D206E6F7420737508
:100FD00070706F727465643A2025640A0050415243
:100FE00053494E472042494F20737465703B20257A
:100FF000640A0070617273652042494F5F5F494E19
:10100000505554544F4B454E0A0070617273652021
:1010100042494F5F5F414D4F554E540A0070617217
:1010200073652042494F5F5F4F46465345545F4FBB
:1010300052444552530A0070617273652042494F11
:101040005F5F46524F4D5F524553455256450A0029
:1010500070617273652042494F5F5F4C454E5F4F30
:1010600052444552530A0070617273652042494FE1
:101070005F5F4F46465345545F41525241595F4F5F
:1010800052444552532C20696E6465783A20256499
:101090000A006F6666736574735F6C766C315B25EE
:1010A000645D3A2025640A007061727365204249CC
:1010B0004F5F5F4F46465345545F41525241595F1F
:1010C0004F5244455253204C4153540A0050415210
:1010D00053494E47204F524445520A007061727383
:1010E00065204F524445525F5F4F50455241544F27
:1010F000520A004E45572063757272656E745F74B4
:1011000075706C655F6F66667365743A2025640A56
:10111000007061727365204F524445525F5F544FB7
:101120004B454E5F414444524553530A007061722F
:101130007365204F524445525F5F4F4646534554B6
:101140005F43414C4C444154410A007061727365E5
:10115000204F524445525F5F4C454E5F43414C4CDB
:10116000444154410A007061727365204F524445F6
:10117000525F5F43414C4C444154410A0068616EE8
:10118000646C655F70726F766964655F746F6B65C0
:101190006E206974656D310A0068616E646C655F0C
:1011A00070726F766964655F746F6B656E206E6FC9
:1011B000206974656D310A004E657374656420465C
:1011C000696E616E636500636F6E746578742D3E41
:1011D000626F6F6C65616E7320262049535F434FC9
:1011E00050593A2025640A00436F707900437265B4
:1011F0006174650050524F434553535F494E5055FB
:10120000545F4F52444552530050524F434553533D
:101210005F4F55545055545F4F52444552530053FD
:10122000656C6C20506F7274666F6C696F00436CF4
:1012300061696D20526F79616C74696573005365E3
:101240006E640053656C6563746F7220696E6465CB
:10125000783A202564206E6F7420737570706F72F9
:101260007465640A00706C616365686F6C646572B4
:1012700000526563656976656420616E20696E76EB
:10128000616C69642073637265656E496E6465782C
:101290000A00556E68616E646C6564206D657373D9
:1012A0006167652025640A00457468657265756D1F
:1012B0000030313233343536373839616263646532
:1012C000663031323334353637383941424344455C
:1012D000460000004B5378A369AAE1909470225114
:1012E0000CB1A9BBB734966DDD72B82300000000C5
:1012F00000000000000000000000000000000000EE
:04000005C0D0000166
:00000001FF
