:02000004C0D06A
:10000000B0B590B0044662B600F024FB01AD2846BE
:1000100000F035FEA885000417D101A800F046FDC8
:100020000B9000F001FD0D2802D3FF2000F024FD0D
:1000300001200102002C17D02068FF31884202D035
:10004000616800F0CBFA00F00BFD00F023FD01A980
:10005000884202D10B9800F029FD01A8808D00286C
:100060000BD1002010B0B0BD0F900E910448784421
:100070000D900DA800F0E6FCF3E700F0F0FAC046A2
:10008000C5110000042181778121490081838168A5
:100090003531C16070470000F0B581B0044630488A
:1000A000784400F0E3FA20780127042829D1206958
:1000B000772805D82B48784400F0D8FA002621E0AC
:1000C000E5687821284600F0B9FD04262E666069AF
:1000D00001780906427812045118827812028918B0
:1000E000C0780818573500211F4A7A4413688342A4
:1000F0000BD0121D491C0629F8D11C48784400F089
:10010000B5FA3E46667001B0F0BD6977C8B2022804
:1001100008DC00280FD0012810D002281BD1154878
:10012000784413E003280CD004280DD0052812D100
:10013000114878440AE00E48784407E012487844B1
:1001400004E00E48784401E00D48784400F08EFA4F
:1001500001202870D6E70B48784400F087FAADE715
:100160005A0C00005D0C000072110000500C0000E1
:10017000290C0000650C00008C0C00005B0C0000DA
:10018000610C0000780C00002E0C0000B0B50C468D
:10019000054601690D48784400F068FAE868017F77
:1001A0000906427F12045118827F12028918C07F0B
:1001B0000D1807487844294600F058FA206E29188F
:1001C00061660448784400F051FAB0BD550C000057
:1001D000510C00005A0C000070B504468568C368D5
:1001E00001690F487844202200F040FA0426267561
:1001F0007420295C881E022808D3012907D0002911
:1002000009D00948784400F031FA267570BD0548D8
:10021000784400F02BFA2046294600F007F870BD1C
:100220004D0C0000600C00007B0C0000F0B581B0AC
:100230000C46054608780E4657360F4668370028A4
:1002400018D0032829D0012800D0E4E0317877487D
:10025000784400F00BFA307802282FDC002800D117
:10026000B6E0012800D1BAE0022800D0D0E0704802
:10027000784486E07E48784400F0F8F93178022925
:100280004BDD032957D0042958D0052900D08FE031
:100290007948784400F0EAF9BDE06E48784400F00F
:1002A000E5F9307801283FDD022868D003286FD0B7
:1002B000042800D0ACE06948784495E0032800D1D8
:1002C00090E0042800D192E0052800D0A0E0B87AA0
:1002D000401EB872C1B25748784400F0C7F9B97AE5
:1002E000012900D997E048002018EA68D37F927F5F
:1002F0001202D2186E23C25292B24F48784400F0D4
:10030000B5F9B87A002800D085E04C48784400F070
:10031000ADF90020307003202FE001293BD00229E5
:1003200046D1544878442CE0002848D001286FD1A9
:100330004948784458E0534878445AE0B87A401E17
:10034000B872C1B25048784400F090F9B97A0129E6
:1003500061D848002018EA68D37F927F1202D21831
:100360006A23C25292B24948784400F07FF9B87AC1
:10037000002850D100203070012020704BE03A4816
:10038000784400F073F928462146FFF7FFFE3FE06E
:100390003648784428E03948784400F067F9E8683E
:1003A0000021425C002A38D1491C2029F9D12FE0D4
:1003B0003748784400F05AF90020287528E028488A
:1003C000784400F053F929692166264878441DE0F5
:1003D0001F48784400F04AF92869206618E0184858
:1003E000784401E01748784400F040F910E01648DE
:1003F000784400F03BF9E868C17F827F120251180F
:100400003980C07FB87289B21048784400F02EF964
:100410003078401C307001B0F0BD1948784400F0CD
:1004200025F9F87A01210143F972F1E7520D000034
:10043000720D0000540D00005B0D0000610D000006
:10044000EF0B0000160C0000250C0000000B000054
:10045000E60B0000F60D0000A40D0000730E000076
:10046000E10C0000EC0C0000720D00007E0D00009D
:100470002B0C0000A90B0000D30C0000190B00008E
:10048000A70A0000B50B0000D80B0000E70B000026
:10049000D70B000070B504468568C0682E465536F7
:1004A00000280FD00C48784400F0E0F8E1683420D0
:1004B000085C3070493514310C22284600F0F9FBF5
:1004C000012004E00548784400F0D0F80020707066
:1004D0000420607570BDC0469C0C0000890C0000B3
:1004E000B0B504468568C06822691F49794400F0A8
:1004F000E0FB7420295C012908DC002915D00129C2
:100500000DD16069A2691949794420E002291AD005
:10051000032904D16069A2691549794417E0194893
:10052000784400F0A3F800201BE0733528780121FF
:1005300001401048784400F099F82878C00709D0A5
:100540000E49794408E06069A2690D49794400F0D8
:10055000B0FBB0BD084979446069A26900F0A9FB0D
:1005600004202077B0BDC046730C0000930C00003F
:10057000AC0C00003A0C00003E0C00004D0C0000DA
:10058000640C0000AE0C0000B0B50446406AA16ADD
:1005900000F054FBE06A216B00F050FB254620354B
:1005A000042028752020205C002806D00A487844C2
:1005B00000F05CF800202875B0BD606AA26A054DA5
:1005C0007D44294600F075FBE06A226B294600F065
:1005D00070FBB0BD300C00004E0C000080B5024630
:1005E000FF20034604339A420CDC0230824218D0CA
:1005F00081204000824218D09A4222D10846FFF75B
:1006000041FD80BD41239B009A4212D006308242B8
:1006100013D083204000824213D10846FFF7B4FF75
:1006200080BD0846FFF738FD80BD0846FFF7D4FDC2
:1006300080BD0846FFF72EFF80BD0846FFF750FF3C
:1006400080BD03487844114600F010F880BDC046D4
:10065000D90B000080B5002000F028FA80BD0446C8
:1006600000F018FA214600F016FB000083B0F0B548
:100670009CB021AC0EC4002800D19EE1044621A804
:1006800006902078002800D197E10026002805D0A8
:10069000252803D0A0194078761CF7E7B1B2204690
:1006A00000F09AF9A05D252801D0A419EAE7A01965
:1006B000441C0025202004900A20039005952F4615
:1006C0002B4619462078641C00232D28F9D0472892
:1006D00013DC2F281FDD0346303B0A2B00D3DAE062
:1006E000302302465A402A4300D0049B0A226A4320
:1006F0001518303D04930B46E3E7672804DD7228A4
:1007000020DD73283AD123E062283DDC482800D060
:100710008FE001271AE0252800D199E02A2822D06D
:100720002E2800D0B7E020782A2800D0B3E06178E6
:10073000482904D0732902D0682900D0ABE0641C9A
:10074000012315E0682800D077E0002710200390EF
:100750000698021D0692CBB20268012B25DD022B02
:100760000B46AED194E02078732800D093E00223AA
:100770000699081D069008680590A2E7752800D123
:1007800070E078285BD086E0632800D173E06428AD
:1007900000D080E00698011D069106680B960A209D
:1007A000002E00D585E0002186E0002B059E05D1B6
:1007B0000021505C491C0028FBD14E1E03981028D4
:1007C00000D071E0002E029700D15AE710780F2375
:1007D00003400009012F15D0002F26D10CAD05963E
:1007E00000266E70784F7F44385C28700420290002
:1007F000ABDF6E70059EF85C029F28700420290014
:10080000ABDF12E00CAD059600266E706F4F7F4493
:10081000385C287004202900ABDF6E70059EF85C00
:10082000029F287004202900ABDF521C761ECDD118
:1008300027E758282FD1012701E070282BD10698EF
:10084000011D069106680B9600200190102034E0EF
:10085000601E00780CAA0021517010700420110055
:10086000ABDF0EE70698011D069106680B96002087
:1008700001900A2021E00698011D069100680B9066
:100880000CAA00215170107004201100ABDFF8E6B3
:100890001078002877D00CAA5220908049480C90FC
:1008A00004201100ABDFECE6B1B2104600F094F882
:1008B00073E076420B96012101910297B0420390BA
:1008C00001D901270FE06A1E07461546002103984B
:1008D0003A460B4600F084F94A1E9141B04202D8D4
:1008E0006A1E0029F0D001980028059600D06D1EE0
:1008F000049A0026002809D0D0B2302808D107A8D1
:100900002D21017001203146064602E0314600E00B
:100910000121A81E0D280CD807A880196D1ED2B27F
:100920000491294600F093F904996D1E761C002D60
:10093000FBD1002903D007A82D218155761C002F5B
:100940001CD00298002802D02248784401E02048B8
:1009500078440490039D0598394600F0B5F829467F
:1009600000F038F90498405C07A9885538462946B4
:1009700000F0AAF8761CBD420746ECD9B1B207A830
:1009800000F02AF87DE60598421C0CAB2020188068
:1009900004201900ABDF521EF7D1B54200D870E633
:1009A000A81B00D16DE6721B0CAB20201880042020
:1009B0001900ABDF521CF7D363E61CB0F0BC01BCDE
:1009C00003B000474552524F560A00003E0A00004D
:1009D000EC08000002090000F0B591B000291AD01F
:1009E0000C460546A6B23F2E009600D33F2601AF27
:1009F00038462946324600F026F90020B855042032
:100A00003900ABDF009A964200DAAD19A41B20042E
:100A100001D09642E6DB11B0F0BD01DF002900D124
:100A200070470846FFF71BFE80B584B00020029097
:100A30000190034801A9FFF7F0FF04B080BDC04654
:100A40003801006080B584B0002102910190034814
:100A500001A9FFF7E2FF04B080BDC0460D6700604A
:100A600080B582B00020019002486946FFF7D5FFAB
:100A700002B080BD8D68006080B584B00021029115
:100A80000190034801A9FFF7C8FF04B080BDC0462C
:100A9000BE9A006080B582B000200190024869468D
:100AA000FFF7BBFF02B080BDB187006080B584B0A6
:100AB000002102910190034801A9FFF7AEFF04B0A5
:100AC00080BDC046060B0160002243088B4274D3F0
:100AD00003098B425FD3030A8B4244D3030B8B423F
:100AE00028D3030C8B420DD3FF22090212BA030C48
:100AF0008B4202D31212090265D0030B8B4219D329
:100B000000E0090AC30B8B4201D3CB03C01A524148
:100B1000830B8B4201D38B03C01A5241430B8B4290
:100B200001D34B03C01A5241030B8B4201D30B0379
:100B3000C01A5241C30A8B4201D3CB02C01A5241A0
:100B4000830A8B4201D38B02C01A5241430A8B4263
:100B500001D34B02C01A5241030A8B4201D30B024C
:100B6000C01A5241CDD2C3098B4201D3CB01C01A66
:100B7000524183098B4201D38B01C01A5241430970
:100B80008B4201D34B01C01A524103098B4201D35E
:100B90000B01C01A5241C3088B4201D3CB00C01ACB
:100BA000524183088B4201D38B00C01A5241430843
:100BB0008B4201D34B00C01A5241411A00D2014668
:100BC000524110467047FFE701B5002000F006F8DB
:100BD00002BDC0460029F7D076E770477047C0468F
:100BE000F0B5CE46474680B5070099463B0C9C467B
:100BF00013041B0C1D000E0061460004140C000CB5
:100C000045434B4360436143C0182C0C20188C466D
:100C1000834203D980235B029846C4444946794302
:100C20007243030C63442D042D0CC91800044019B1
:100C30008918C0BCB946B046F0BDC04610B5002208
:100C400000F005F810BD10B500F008F810BD0B005D
:100C500010B511001A0000F00AF810BD002310B5FD
:100C60009A4200D110BDCC5CC4540133F8E70300B4
:100C70008218934200D1704719700133F9E7F0C030
:100C800041464A4653465C466D4676467EC0283805
:100C9000F0C80020704710307CC890469946A246A4
:100CA000AB46B54608C82838F0C8081C00D101205A
:100CB0001847F0B50500002A14D0501E012A1CD098
:100CC0002C000A0016002700367801320134130088
:100CD00025003E70002E0DD001380028F2D10022F0
:100CE0002A7000E00B001A000132501E0078130039
:100CF0000028F9D1581A0138F0BD0B00EFE7494E32
:100D00002068616E646C655F696E69745F636F6EA5
:100D100074726163740A00506C7567696E2070614B
:100D200072616D6574657273207374727563747526
:100D300072652069732062696767657220746861F3
:100D40006E20616C6C6F7765642073697A650A0048
:100D500063616E27742066696E642073656C6563D9
:100D6000746F720A00494E204352454154450A00AF
:100D7000494E2050524F434553535F494E505554AE
:100D80005F4F52444552530A00494E2050524F4340
:100D90004553535F4F55545055545F4F524445523D
:100DA000530A00494E2044455354524F590A0049B2
:100DB0004E2052454C4541534520544F4B454E53D0
:100DC0000A00494E205452414E5346455220465245
:100DD0004F4D0A004D697373696E672073656C65CA
:100DE00063746F72496E6465783A2025640A006DF9
:100DF00073672D3E706172616D657465724F6666D2
:100E00007365743A2025640A0055344245206D7399
:100E1000672D3E706172616D657465723A2025645C
:100E20000A00636F70696564206F66667365743A63
:100E30002025640A00706C7567696E2070726F7689
:100E400069646520706172616D657465723A206FC6
:100E500066667365742025640A42797465733A2066
:100E60001B5B303B33316D20252E2A48201B5B3025
:100E70006D200A0050454E5A4F20494E205042499D
:100E80004F0A0053656C6563746F7220496E646528
:100E900078206E6F7420737570706F727465643A29
:100EA0002025640A0050415253494E472043524581
:100EB0004154450A004352454154455F5F544F4BEE
:100EC000454E5F49440A004953204E4F5420300A92
:100ED000004352454154455F5F4F46465345545F7A
:100EE0004241544348494E5055544F524445520A8A
:100EF000004352454154455F5F4C454E5F4241546B
:100F00004348494E5055544F524445520A00637568
:100F10007272656E745F6C656E6774683A202564E2
:100F20000A004352454154455F5F4F46465345547E
:100F30005F41525241595F4241544348494E5055D6
:100F4000544F524445522C20696E6465783A2025EE
:100F5000640A006F6666736574735F6C766C305BF1
:100F600025645D3A2025640A004E4F50204E4F50B4
:100F7000204352454154455F5F42415443485F49D5
:100F80004E5055545F4F52444552530A00506172BF
:100F9000616D206E6F7420737570706F727465640C
:100FA0003A2025640A0050415253494E4720424995
:100FB0004F20737465703B2025640A007061727362
:100FC000652042494F5F5F494E505554544F4B4541
:100FD0004E0A0070617273652042494F5F5F414D58
:100FE0004F554E540A0070617273652042494F5F3D
:100FF0005F4F46465345545F4F52444552530A0093
:1010000070617273652042494F5F5F46524F4D5F7A
:10101000524553455256450A00706172736520422D
:10102000494F5F5F4C454E5F4F52444552530A0053
:1010300070617273652042494F5F5F4F464653456A
:10104000545F41525241595F4F52444552532C20F4
:10105000696E6465783A2025640A006F6666736578
:1010600074735F6C766C315B25645D3A2025640A8D
:101070000070617273652042494F5F5F4F4646536F
:1010800045545F41525241595F4F5244455253209B
:101090004C4153540A0050415253494E47204F523D
:1010A0004445520A007061727365204F52444552A4
:1010B0005F5F4F50455241544F520A004E455720F2
:1010C00063757272656E745F7475706C655F6F6660
:1010D000667365743A2025640A0070617273652036
:1010E0004F524445525F5F544F4B454E5F4144441D
:1010F000524553530A007061727365204F52444544
:10110000525F5F4F46465345545F43414C4C444108
:1011100054410A007061727365204F524445525F1A
:101120005F4C454E5F43414C4C444154410A007072
:1011300061727365204F524445525F5F43414C4C8E
:10114000444154410A0050454E5A4F206974656D20
:10115000310A0050454E5A4F206E6F206974656DFC
:10116000310A004E65737465642046696E616E6372
:101170006500636F6E746578742D3E626F6F6C6589
:10118000616E7320262049535F434F50593A202502
:10119000640A00436F7079004372656174650050A2
:1011A000524F434553535F494E5055545F4F52443D
:1011B0004552530050524F434553535F4F5554507F
:1011C00055545F4F52444552530044455354524F77
:1011D000590053656C6563746F7220696E6465783D
:1011E0003A202564206E6F7420737570706F72746E
:1011F00065640A00706C616365686F6C6465720099
:10120000526563656976656420616E20696E7661FA
:101210006C69642073637265656E496E6465780AF3
:1012200000556E68616E646C6564206D65737361F2
:1012300067652025640A00457468657265756D00F0
:10124000303132333435363738396162636465663C
:1012500030313233343536373839414243444546EC
:101260004B5378A369AAE190947022510CB1A9BBA9
:10127000B734966DDD72B823000000000000000056
:04000005C0D0000166
:00000001FF
