:02000004C0D06A
:10000000B0B590B0044662B600F0E0FC01AD284601
:1000100001F02CF9A885000417D101A800F002FF17
:100020000B9000F0BDFE0D2802D3FF2000F0E0FE93
:1000300001200102002C17D02068FF31884202D035
:10004000616800F087FC00F0C7FE00F0DFFE01A948
:10005000884202D10B9800F0E5FE01A8808D0028AF
:100060000BD1002010B0B0BD0F900E910448784421
:100070000D900DA800F0A2FEF3E700F0ACFCC04626
:100080003017000003B4014811E000002F00000009
:1000900003B401480BE000003200000003B4014843
:1000A00005E000004400000003B40248FFE70249F5
:1000B000084700006F00000001001200F0B593B087
:1000C00003920D460346012218980146049291437B
:1000D0001E224A4019990A430027002A3A460593EE
:1000E00016D106AE33243246234600F065F830467A
:1000F000214601F024F93318221A2D497944184673
:1001000001F0CEF83046214601F019F9059B024670
:1001100006A802928018274E7E44D95D0F240A0952
:100120002140715C4170B15C0170801C7F1C142FF8
:10013000F3D104980102039F3846FFF7AFFF002870
:1001400034D12020019006AA0092029B283301217D
:1001500038460491FFF79CFF002827D13846FFF767
:1001600091FF0020024604990A4043080599C95CA2
:10017000002A01D0214000E00909092901D8715C59
:100180000BE02F4606ADEB5C920004255540EB409A
:100190001A07715C00D520393D462954401C282897
:1001A000E0D128200021295413B0F0BD00F013FC49
:1001B000541200003B120000F0B587B00193029288
:1001C0000A46074600210691CCB2601C019988427C
:1001D0003BD20A26002538461146059232462B4668
:1001E00000F0BAFE0490039132462B4600F0D4FE94
:1001F000391A3020084302990855069E711C0922BD
:10020000D21B2A46059B9A41049F039ADBD3C9B2AD
:10021000029A5554310616D01546117811551070B2
:10022000601E0006400E0ED0FE20C043FE340121A9
:100230002A192646135C6C5C14546B54741E491CBA
:10024000F3B29942F4D307B0F0BD014800F0C3FB0C
:1002500002650000F0B581B014460E46054601293E
:100260000AD12878302807D1022B2ED300206070C5
:1002700030202070012061E00698B04222D2B11CEB
:10028000994222D8311A009109D02946009B27466D
:100290000A783A70491C5B1E7F1C002BF8D100289D
:1002A000009A114602D02E21A154511CB2422AD2EA
:1002B0006318AD180022AE5C9E54521C9042FAD1D5
:1002C0008A1821E0C11C994201D9002036E0871B21
:1002D0002E20607030202070002F08D0A01C30220B
:1002E000394600F08AFFB91C7F1EFDD100E00221D3
:1002F000002E08D0621800202B5C1354401C86424C
:10030000FAD10A1800E00A460025A55401209142BE
:1003100014D2665C002D0B4600D02B46302E00D048
:100320000023491C8A421D46F3D1002B06D0002130
:10033000E1545A1EA35C2E2B00D1A15401B0F0BD94
:10034000F0B58BB0202901D9002057E014460E46A5
:10035000074603AD20212846029300F041FFA81B69
:1003600020303946324600F040FF029A002003A9AF
:10037000095C00290AD1401C2028F8D1022AE3D3C5
:100380001F497944204600F0ADFF36E0002003A964
:100390000B5A5BBA0B52801C2028F8D11346002060
:1003A00003A9095C002903D1401C2028F8D11CE0D6
:1003B000002BC9D0009301940024204603AF395B81
:1003C000000445180A262846314600F039FD385306
:1003D0004643A81BA41C202CF0D130210843009BCD
:1003E0005B1E019CE054029AD9E7E118D51A204619
:1003F0002A4600F0FEFE0020605501200BB0F0BD43
:10040000E80F0000F0B59DB0039302920C4606463B
:1004100004AF64253846294600F0E2FE3046214606
:100420003A462B46FFF78CFF002826D0239D229EBC
:1004300004AF6421384600F082FF01900C2103983C
:1004400000F07DFFC4B2AC422A4600D822463046B6
:10045000039900F0CAFE029800903219E043431954
:100460000198C1B23846FFF7F5FE002805D0A8195B
:10047000401E002101701DB0F0BD072000F0ABFA56
:10048000B0B504460948A083A069A5682946213172
:10049000142200F0B9FE0421A1773535E56000286B
:1004A00001D0032000E002206077B0BD020200000E
:1004B000F0B581B0044600780126042829D12069CE
:1004C000732805D81448784400F08CFA002620E000
:1004D000E5687421284600F083FE04272F666069D2
:1004E000017809064278120451188278120289189C
:1004F000C0780818094979440968814209D15735FB
:10050000002028770648784400F06CFA0120287013
:100510003E46667001B0F0BDA60E0000D21200008B
:100520009F0E0000B0B50C46054601690D487844A1
:1005300000F058FAE868017F0906427F120451185A
:10054000827F12028918C07F0D1807487844294617
:1005500000F048FA206E291861660448784400F0DB
:1005600041FAB0BD8B0E0000870E0000900E000017
:10057000F0B581B005468468C36801697C48784459
:10058000202200F02FFA042028757320215C002916
:1005900006D09148784400F025FA00202875E5E05F
:1005A00026465736274668372078002818D0032873
:1005B00029D0012800D0D9E031786E48784400F085
:1005C00011FA307802282FDC002800D1ABE0012896
:1005D00000D1AFE0022800D0C5E06748784485E04C
:1005E0007548784400F0FEF9317802294ADD032984
:1005F00056D0042957D0052900D084E070487844AB
:1006000000F0F0F9B2E06548784400F0EBF930789A
:1006100001283EDD022867D003286ED0042800D0D0
:10062000A1E0604878448AE0032800D185E00428EE
:1006300000D187E0052800D095E0B87A401EB87256
:10064000C1B24E48784400F0CDF9B97A012900D9F9
:100650008CE048002018EA68D37F927F1202D218FB
:100660006E23C25292B24648784400F0BBF9B87A81
:1006700000287BD14348784400F0B4F90020307062
:1006800003202FE001293BD002293CD14B4878447C
:100690002CE000283ED0012865D1414878444EE046
:1006A0004948784450E0B87A401EB872C1B2474811
:1006B000784400F097F9B97A012957D848002018F2
:1006C000EA68D37F927F1202D2186A23C25292B292
:1006D0003F48784400F086F9B87A002846D10020D7
:1006E00030700120207041E03148784400F07AF900
:1006F00028462146FFF716FF35E02E4878441EE0D5
:10070000304878441BE03348784400F06BF900200F
:10071000287528E02448784400F064F929692166A6
:10072000224878441DE01C48784400F05BF92869B1
:10073000206618E01448784401E01448784400F03A
:1007400051F910E01248784400F04CF9E868C17F94
:10075000827F120251183980C07FB87289B20D4869
:10076000784400F03FF93078401C307001B0F0BDA3
:10077000810E00009B0F0000BB0F00009D0F0000CA
:10078000A40F0000AC0F00004E0E0000750E00001C
:10079000840E00005F0D0000450E00003F100000B9
:1007A000EF0F0000BC100000400F00004B0F0000D6
:1007B000BD0F0000C90F00007E0E0000F40D000008
:1007C0001C0F00006E0D0000000E0000230E000044
:1007D000320E0000360E0000AA0E000070B504466E
:1007E0008568C0682E46553600280FD00C487844DE
:1007F00000F0F8F8E1683420085C307049351431B5
:100800000C22284600F06EFD012004E005487844E3
:1008100000F0E8F8002070700420607570BDC046DC
:10082000090F0000F60E0000B0B504468568C068E8
:1008300022690B49794400F055FD7320295C002999
:1008400005D00948784400F0CDF8002006E0606942
:10085000A2690449794400F045FD04202077B0BD29
:10086000E00E0000C70E0000DE0E000070B582B082
:100870000446C569406AA16A00F0B2FCE06A216BD7
:1008800000F0AEFC26462036042030752020205C87
:10089000022816D001282CD000283DD1606AA26A17
:1008A0002749794400F01EFD606800686221415CC0
:1008B000E26A236B0092019342301222214B7B4467
:1008C00039E0606AA26A2149794400F00BFDE06AD0
:1008D00030210170E06A7821417020680268E06A86
:1008E0000021009101912135811C2846FFF7E6FB8C
:1008F00023E02E465536606AA26A1349794400F017
:10090000F1FC30787178E26A236B00920193002940
:1009100009D02C46493407E00D48784400F062F8CD
:100920000020307509E01034002900D11220C2B235
:10093000681C20212346FFF765FD02B070BDC0464C
:10094000C30E0000AC0E0000730E0000B40E0000D9
:100950002A0E000080B50246FF20034604339A4267
:100960000CDC0230824218D081204000824218D034
:100970009A4222D10846FFF783FD80BD41239B00A8
:100980009A4212D00630824213D083204000824225
:1009900013D10846FFF76AFF80BD0846FFF788FDC0
:1009A00080BD0846FFF7E4FD80BD0846FFF716FF4F
:1009B00080BD0846FFF738FF80BD034878441146E4
:1009C00000F010F880BDC046CC0D000080B50020BE
:1009D00000F028FA80BD044600F018FA214600F025
:1009E00051FC000083B0F0B59CB021AC0EC40028CF
:1009F00000D19EE1044621A806902078002800D16D
:100A000097E10026002805D0252803D0A0194078BA
:100A1000761CF7E7B1B2204600F09AF9A05D2528D0
:100A200001D0A419EAE7A019441C00252020049055
:100A30000A20039005952F462B4619462078641C02
:100A400000232D28F9D0472813DC2F281FDD03466B
:100A5000303B0A2B00D3DAE0302302465A402A43C7
:100A600000D0049B0A226A431518303D04930B46BC
:100A7000E3E7672804DD722820DD73283AD123E0FC
:100A800062283DDC482800D08FE001271AE02528A5
:100A900000D199E02A2822D02E2800D0B7E0207873
:100AA0002A2800D0B3E06178482904D0732902D005
:100AB000682900D0ABE0641C012315E0682800D051
:100AC00077E00027102003900698021D0692CBB213
:100AD0000268012B25DD022B0B46AED194E0207875
:100AE000732800D093E002230699081D0690086839
:100AF0000590A2E7752800D170E078285BD086E0E9
:100B0000632800D173E0642800D080E00698011DBE
:100B1000069106680B960A20002E00D585E000217C
:100B200086E0002B059E05D10021505C491C002861
:100B3000FBD14E1E0398102800D071E0002E0297C2
:100B400000D15AE710780F2303400009012F15D078
:100B5000002F26D10CAD059600266E70784F7F448D
:100B6000385C287004202900ABDF6E70059EF85CAD
:100B7000029F287004202900ABDF12E00CAD05961F
:100B800000266E706F4F7F44385C28700420290067
:100B9000ABDF6E70059EF85C029F28700420290070
:100BA000ABDF521C761ECDD127E758282FD1012765
:100BB00001E070282BD10698011D069106680B965E
:100BC00000200190102034E0601E00780CAA002163
:100BD0005170107004201100ABDF0EE70698011D64
:100BE000069106680B96002001900A2021E00698E5
:100BF000011D069100680B900CAA00215170107025
:100C000004201100ABDFF8E61078002877D00CAA9A
:100C10005220908049480C9004201100ABDFECE694
:100C2000B1B2104600F094F873E076420B960121C1
:100C300001910297B042039001D901270FE06A1E8B
:100C400007461546002103983A460B4600F0A4F9E2
:100C50004A1E9141B04202D86A1E0029F0D0019884
:100C60000028059600D06D1E049A0026002809D0A1
:100C7000D0B2302808D107A82D21017001203146BB
:100C8000064602E0314600E00121A81E0D280CD8DE
:100C900007A880196D1ED2B20491294600F0ADFA62
:100CA00004996D1E761C002DFBD1002903D007A8E6
:100CB0002D218155761C002F1CD00298002802D0CF
:100CC0002248784401E0204878440490039D059828
:100CD000394600F0B5F8294600F038F90498405C30
:100CE00007A988553846294600F0AAF8761CBD4267
:100CF0000746ECD9B1B207A800F02AF87DE60598BE
:100D0000421C0CAB2020188004201900ABDF521EBF
:100D1000F7D1B54200D870E6A81B00D16DE6721B72
:100D20000CAB2020188004201900ABDF521CF7D335
:100D300063E61CB0F0BC01BC03B000474552524F03
:100D4000490C0000310C0000DF0A0000F50A000029
:100D5000F0B591B000291AD00C460546A6B23F2E38
:100D6000009600D33F2601AF38462946324600F0B0
:100D70003CFA0020B85504203900ABDF009A9642B7
:100D800000DAAD19A41B200401D09642E6DB11B0B5
:100D9000F0BD01DF002900D170470846FFF71BFEB8
:100DA00080B584B0002002900190034801A9FFF7AC
:100DB000F0FF04B080BDC0463801006080B584B04B
:100DC000002102910190034801A9FFF7E2FF04B05E
:100DD00080BDC0460D67006080B582B000200190E4
:100DE00002486946FFF7D5FF02B080BD8D680060FC
:100DF00080B584B0002102910190034801A9FFF75A
:100E0000C8FF04B080BDC046BE9A006080B582B005
:100E10000020019002486946FFF7BBFF02B080BD89
:100E2000B187006080B584B0002102910190034831
:100E300001A9FFF7AEFF04B080BDC046060B0160FC
:100E4000002243088B4274D303098B425FD3030A09
:100E50008B4244D3030B8B4228D3030C8B420DD31C
:100E6000FF22090212BA030C8B4202D312120902AA
:100E700065D0030B8B4219D300E0090AC30B8B42E8
:100E800001D3CB03C01A5241830B8B4201D38B0396
:100E9000C01A5241430B8B4201D34B03C01A52413B
:100EA000030B8B4201D30B03C01A5241C30A8B427E
:100EB00001D3CB02C01A5241830A8B4201D38B0269
:100EC000C01A5241430A8B4201D34B02C01A52410D
:100ED000030A8B4201D30B02C01A5241CDD2C3097F
:100EE0008B4201D3CB01C01A524183098B4201D3FB
:100EF0008B01C01A524143098B4201D34B01C01AE6
:100F0000524103098B4201D30B01C01A5241C3085D
:100F10008B4201D3CB00C01A524183088B4201D3CC
:100F20008B00C01A524143088B4201D34B00C01AB8
:100F30005241411A00D20146524110467047FFE724
:100F400001B5002000F006F802BDC0460029F7D028
:100F500076E770477047C046002B11D1002A0FD1A9
:100F6000002900D1002802D00021C943080007B49D
:100F7000024802A14018029003BDC046D9FFFFFFFE
:100F800003B4684601B5029800F034F8019B9E4610
:100F900002B00CBC7047C046F0B5CE46474680B59F
:100FA000070099463B0C9C4613041B0C1D000E00C9
:100FB00061460004140C000C45434B4360436143FD
:100FC000C0182C0C20188C46834203D980235B0266
:100FD0009846C444494679437243030C63442D0444
:100FE0002D0CC918000440198918C0BCB946B04678
:100FF000F0BDC046F0B557464E464546DE46E0B524
:1010000004000D009246994683B08B4230D82DD013
:101010004946504600F0BAF829000600200000F0CA
:10102000B5F8331A9846203B9B4633D45A4653466C
:10103000934042461F00534693401E00AF423AD8A9
:10104000AF4200D178E05B46A41BBD41002B00DA23
:1010500075E0002200230092019301235A46934039
:101060000193012342469340009328E08242CFD966
:1010700000220023009201930C9B002B01D01C60E6
:101080005D600098019903B0F0BCBB46B246A9462A
:10109000A046F0BD424620239B1A5246DA40414604
:1010A00013004A468A40170042461F435346934066
:1010B0001E00AF42C4D90022002300920193434690
:1010C000002BD9D0FB0772081A4346467B080EE076
:1010D000AB4201D1A2420CD8A41A9D41012024198F
:1010E0006D410021013E24184D41002E06D0AB4237
:1010F000EED9013E24196D41002EF8D100980199D6
:101100005B4600196941002B24DB2B005A464446FC
:10111000D3402A00E2401C005B461500002B2ADB6E
:1011200026009E40330026004746BE403200801A0B
:101130009941009001919FE7A342BCD883E74246C2
:10114000202300219B1A0022009101920122DA4003
:10115000019286E7424620239B1A2A0046469A407F
:101160002300F340444613432A00E2401C005B4640
:101170001500002BD4DA42462F002023260097408A
:101180009B1ADE403B003343CDE7C04610B5002933
:1011900003D100F007F8203002E0080000F002F868
:1011A00010BDC0461C2101231B04984201D3000C32
:1011B00010391B0A984201D3000A08391B099842CA
:1011C00001D30009043902A2105C40187047C046E0
:1011D0000403020201010101000000000000000000
:1011E00010B5002200F009F810BD10B500F01AF893
:1011F00010BD10B500F01FF810BD0B0010B51100A8
:101200001A0000F02BF810BD30B500240139A242BD
:1012100001D1002005E0035D01340D5DAB42F6D045
:10122000581B30BD002310B59A4200D110BDCC5CD4
:10123000C4540133F8E710B5884202D98B1898429C
:1012400003D3002307E08B5C8354013AFBD210BD2B
:10125000CC5CC45401339A42FAD1F8E703008218F7
:10126000934200D1704719700133F9E7F0C041464D
:101270004A4653465C466D4676467EC02838F0C8DE
:101280000020704710307CC890469946A246AB4675
:10129000B54608C82838F0C8081C00D101201847F6
:1012A00070B5040008002300A518AB420AD11C1B2E
:1012B000151BA2420BD00200117800290BD1197026
:1012C000101A06E019780029F1D00133EDE700F09B
:1012D0002FF8001970BD012D02D01970013D0133A6
:1012E0000132E9E7F0B50500002A14D0501E012AAA
:1012F0001CD02C000A001600270036780132013479
:10130000130025003E70002E0DD001380028F2D1C8
:1013100000222A7000E00B001A000132501E0078F3
:1013200013000028F9D1581A0138F0BD0B00EFE77F
:101330000023C25C0133002AFBD1581E7047030012
:1013400041188B4202D01A78002A01D1181A70472E
:101350000133F6E730780030313233343536373800
:1013600039616263646566004552524F5200300035
:10137000506C7567696E20706172616D657465721D
:10138000732073747275637475726520697320625B
:101390006967676572207468616E20616C6C6F7735
:1013A00065642073697A650A0050454E5A4F20499A
:1013B0004E204352454154450A002573006D736722
:1013C0002D3E706172616D657465724F66667365FE
:1013D000743A2025640A0055344245206D73672D08
:1013E0003E706172616D657465723A2025640A0011
:1013F000636F70696564206F66667365743A202553
:10140000640A00706C7567696E2070726F7669642B
:101410006520706172616D657465723A206F6666F1
:101420007365742025640A42797465733A201B5BE6
:10143000303B33316D20252E2A48201B5B306D2038
:101440000A0053656C6563746F7220496E64657839
:10145000206E6F7420737570706F727465643A20BB
:1014600025640A0050415253494E4720435245419A
:1014700054450A004352454154455F5F544F4B4524
:101480004E5F49440A004352454154455F5F4F4611
:10149000465345545F4241544348494E5055544F7A
:1014A000524445520A004352454154455F5F4C4502
:1014B0004E5F4241544348494E5055544F52444563
:1014C000520A0063757272656E745F6C656E677444
:1014D000683A2025640A004352454154455F5F4FF6
:1014E00046465345545F41525241595F424154432D
:1014F00048494E5055544F524445522C20696E6411
:1015000065783A2025640A006F6666736574735FB8
:101510006C766C305B25645D3A2025640A004E4F82
:1015200050204E4F50204352454154455F5F424149
:101530005443485F494E5055545F4F5244455253AF
:101540000A00506172616D206E6F74207375707047
:101550006F727465643A2025640A00504152534901
:101560004E472042494F20737465703B2025640A22
:101570000070617273652042494F5F5F494E50555C
:1015800054544F4B454E0A007061727365204249B6
:101590004F5F5F414D4F554E540A00706172736545
:1015A0002042494F5F5F4F46465345545F4F524478
:1015B0004552530A0070617273652042494F5F5F64
:1015C00046524F4D5F524553455256450A00706191
:1015D0007273652042494F5F5F4C454E5F4F5244E6
:1015E0004552530A0070617273652042494F5F5F34
:1015F0004F46465345545F41525241595F4F524402
:101600004552532C20696E6465783A2025640A009F
:101610006F6666736574735F6C766C315B25645DB1
:101620003A2025640A0070617273652042494F5F59
:101630005F4F46465345545F41525241595F4F52A6
:1016400044455253204C4153540A0050415253498F
:101650004E47204F524445520A0070617273652014
:101660004F524445525F5F4F50455241544F520ACA
:10167000004E45572063757272656E745F747570A5
:101680006C655F6F66667365743A2025640A007046
:1016900061727365204F524445525F5F544F4B4512
:1016A0004E5F414444524553530A00706172736562
:1016B000204F524445525F5F4F46465345545F4367
:1016C000414C4C444154410A007061727365204F93
:1016D000524445525F5F4C454E5F43414C4C444140
:1016E00054410A007061727365204F524445525F45
:1016F0005F43414C4C444154410A0050454E5A4FBF
:10170000206974656D310A0050454E5A4F206E6F46
:10171000206974656D310A004E6573746564004319
:1017200072656174650053656C6563746F722069DE
:101730006E6465783A202564206E6F74207375702E
:10174000706F727465640A005265636569766564DA
:1017500020616E20696E76616C69642073637265C6
:10176000656E496E6465780A0053656E6400455481
:1017700048200052656365697665204D696E2E00CC
:1017800042656E656669636961727900556E68616C
:101790006E646C6564206D65737361676520256494
:1017A0000A00457468657265756D003031323334F6
:1017B00035363738396162636465663031323334C7
:1017C0003536373839414243444546004B5378A3B8
:1017D0000000000000000000000000000000000009
:1017E00000000000000000000000000000000000F9
:1017F00000000000000000000000000000000000E9
:04000005C0D0000166
:00000001FF
